S00C0000554152542E73726563DC
S11300000C9434000C943E000C943E000C943E007E
S11300100C943E000C943E000C943E000C943E0064
S11300200C943E000C943E000C943E000C943E0054
S11300300C943E000C943E000C943E000C943E0044
S11300400C943E000C943E000C943E000C943E0034
S11300500C943E000C943E000C943E000C943E0024
S11300600C943E000C943E0011241FBECFEFD8E048
S1130070DEBFCDBF0E9464000C9479000C94000094
S11300809093C5008093C400E1ECF0E08081886126
S11300908083E2ECF0E08081866080830895909113
S11300A0C00020E230E002C0359527959A95E2F72A
S11300B020FFF5CF8093C60008958091C000882367
S11300C0E4F78091C600089587E690E00E9440001E
S11300D00E945D000E944F008DE00E944F002FEFB0
S11300E089E698E1215080409040E1F700C000008B
S10900F0EFCFF894FFCFEE
S9030000FC
