:100000000C9434000C943E000C943E000C943E0082
:100010000C943E000C943E000C943E000C943E0068
:100020000C943E000C943E000C943E000C943E0058
:100030000C943E000C943E000C943E000C943E0048
:100040000C943E000C943E000C943E000C943E0038
:100050000C943E000C943E000C943E000C943E0028
:100060000C943E000C943E0011241FBECFEFD8E04C
:10007000DEBFCDBF0E944E000C9463000C940000C4
:10008000F894A89598E288E10FB6F894A895809323
:1000900060000FBE909360007894089584B18062F0
:1000A00084B985B1806285B92FE38DE093E021505A
:1000B00080409040E1F700C0000085B18F7D85B998
:0A00C0000E944000FFCFF894FFCF2C
:00000001FF
