:100000000C9434000C9446000C9446000C9446006A
:100010000C9446000C9446000C9446000C94460048
:100020000C9446000C9446000C94D1000C944600AD
:100030000C9446000C94BA000C9446000C944600B4
:100040000C9446000C9446000C9446000C94460018
:100050000C9446000C9446000C9446000C94460008
:100060000C9446000C94460011241FBECFEFD8E03C
:10007000DEBFCDBF21E0A0E0B1E001C01D92A13103
:10008000B207E1F70E9448000C94AE020C94000005
:1000900084B18E7F84B9F89410928000E1E8F0E09A
:1000A0001082109285001092840080818164808388
:1000B000EFE6F0E0808181628083789480910C018A
:1000C0008230E1F710920C0120910D0130910E0168
:1000D0006091080170910901CB01A0E0B0E0DC0162
:1000E00099278827820F931FA11DB11D20910F0111
:1000F00030911001BC01CD01621B730B8109910984
:100100000E94B30120E030E040E85DE30E9441023C
:100110000E9484016093040170930501809306019D
:10012000909307010E94B3019B01AC0160E070E075
:1001300080E89FE30E94120120E034E244E759E4A2
:100140000E944102609300017093010180930201BB
:1001500090930301109209011092080110920B0173
:1001600010920A0181E286BBEFE6F0E080818162B5
:100170008083A4CF1F920F920FB60F9211248F93FA
:100180009F9380910A0190910B01019690930B012E
:1001900080930A019F918F910F900FBE0F901F9037
:1001A00018951F920F920FB60F9211248F939F9361
:1001B000EF93FF9380910C0181110DC08091860017
:1001C000909187009093100180930F0110920B0182
:1001D00010920A0119C080910C018130A9F480911C
:1001E00086009091870090930E0180930D0180917D
:1001F0000A0190910B019093090180930801EFE6A9
:10020000F0E080818E7D808380910C018F5F8093F0
:100210000C01FF91EF919F918F910F900FBE0F9066
:100220001F9018950E9426010C9407020E9400025C
:1002300058F00E94F90140F029F45F3F29F00C9436
:10024000F00151110C943B020C94F6010E9418022B
:1002500068F39923B1F3552391F3951B550BBB27F5
:10026000AA2762177307840738F09F5F5F4F220F3A
:10027000331F441FAA1FA9F335D00E2E3AF0E0E831
:1002800032D091505040E695001CCAF72BD0FE2F7B
:1002900029D0660F771F881FBB1F2617370748070F
:1002A000AB07B0E809F0BB0B802DBF01FF279358C7
:1002B0005F4F3AF09E3F510578F00C94F0010C949A
:1002C0003B025F3FE4F3983ED4F3869577956795BC
:1002D000B795F7959F5FC9F7880F911D96958795FC
:1002E00097F90895E1E0660F771F881FBB1F62171B
:1002F00073078407BA0720F0621B730B840BBA0BD9
:10030000EE1F88F7E09508950E94200288F09F571D
:1003100098F0B92F9927B751B0F0E1F0660F771F29
:10032000881F991F1AF0BA95C9F714C0B13091F01F
:100330000E943A02B1E008950C943A02672F782F98
:100340008827B85F39F0B93FCCF3869577956795E4
:10035000B395D9F73EF490958095709561957F4F50
:100360008F4F9F4F0895E89409C097FB3EF49095F6
:100370008095709561957F4F8F4F9F4F9923A9F07E
:10038000F92F96E9BB279395F6958795779567950D
:10039000B795F111F8CFFAF4BB0F11F460FF1BC051
:1003A0006F5F7F4F8F4F9F4F16C0882311F096E9E4
:1003B00011C0772321F09EE8872F762F05C0662392
:1003C00071F096E8862F70E060E02AF09A95660F4B
:1003D000771F881FDAF7880F9695879597F9089504
:1003E00097F99F6780E870E060E008959FEF80ECE8
:1003F000089500240A94161617061806090608958B
:1004000000240A9412161306140605060895092EF0
:100410000394000C11F4882352F0BB0F40F4BF2B5F
:1004200011F460FF04C06F5F7F4F8F4F9F4F08959F
:1004300057FD9058440F551F59F05F3F71F0479595
:10044000880F97FB991F61F09F3F79F0879508957A
:10045000121613061406551FF2CF4695F1DF08C099
:10046000161617061806991FF1CF869571056105B6
:1004700008940895E894BB2766277727CB0197F95E
:1004800008950E9454020C9407020E94F90138F06A
:100490000E94000220F0952311F00C94F0010C94BE
:1004A000F60111240C943B020E94180270F3959FF0
:1004B000C1F3950F50E0551F629FF001729FBB275B
:1004C000F00DB11D639FAA27F00DB11DAA1F649FF7
:1004D0006627B00DA11D661F829F2227B00DA11DAA
:1004E000621F739FB00DA11D621F839FA00D611D30
:1004F000221F749F3327A00D611D231F849F600D51
:10050000211D822F762F6A2F11249F5750409AF079
:10051000F1F088234AF0EE0FFF1FBB1F661F771F05
:10052000881F91505040A9F79E3F510580F00C94D0
:10053000F0010C943B025F3FE4F3983ED4F38695C0
:1005400077956795B795F795E7959F5FC1F7FE2B70
:10055000880F911D9695879597F90895F894FFCF88
:00000001FF
