S00E000050574D5F45582E7372656326
S11300000C9434000C943E000C943E000C943E007E
S11300100C943E000C943E000C943E000C943E0064
S11300200C943E000C943E000C943E000C943E0054
S11300300C943E000C943E000C943E000C943E0044
S11300400C943E000C943E000C943E000C943E0034
S11300500C943E000C943E000C943E000C943E0024
S11300600C943E000C943E0011241FBECFEFD8E048
S1130070DEBFCDBF0E9440000C94C0000C94000071
S11300808AB180628AB98AB180648AB984B1887F6E
S113009084B985B1876085B984B5836A84BD1899AC
S11300A019C08FE39CE90197F1F700C0000083B108
S11300B023B190E002C0959587952A95E2F780FFD9
S11300C0F6CF3F5F3B3008F030E089E1389F802D68
S11300D0112487BD199940C08FE39CE90197F1F77A
S11300E000C00000199BFECF4F5F463008F040E08F
S11300F04230B9F028F4442349F0413059F02CC07F
S11301004430E9F0A8F0453009F126C085B5887F70
S113011085BD22C085B5897F85BD85B5816085BDD6
S11301201BC085B58A7F85BD85B5826085BD14C039
S113013085B58B7F85BD85B5836085BD0DC085B5CF
S11301408C7F85BD85B5846085BD06C085B58D7FF2
S113015085BD85B5856085BD1A99A1CF8FE39CE9DE
S11301600197F1F700C000001A9BFECF5F5F5B3080
S113017008F050E089E1589F802D112488BD8FCF6D
S1070180F894FFCF1D
S9030000FC
