S0100000536572766F5F45582E7372656309
S11300000C9434000C943E000C943E000C943E007E
S11300100C943E000C943E000C943E000C943E0064
S11300200C943E000C943E000C943E000C943E0054
S11300300C943E000C943E000C943E000C943E0044
S11300400C943E000C943E000C943E000C943E0034
S11300500C943E000C943E000C943E000C943E0024
S11300600C943E000C943E0011241FBECFEFD8E048
S1130070DEBFCDBF0E9440000C947D000C940000B4
S113008082E8809380008BE1809381008FE39CE978
S113009090938700809386001092850010928400CC
S11300A084B1826084B9E8E8F0E080ED97E0918360
S11300B080832FEF8DE399E4215080409040E1F755
S11300C000C0000088EB9BE0918380832FEF8DE3D9
S11300D099E4215080409040E1F700C0000080EA9C
S11300E09FE0918380832FEF8DE399E4215080403A
S11100F09040E1F700C00000D6CFF894FFCF97
S9030000FC
